{
  "contractName": "BridgeBsc",
  "abi": [
    {
      "inputs": [
        {
          "internalType": "address",
          "name": "token",
          "type": "address"
        }
      ],
      "stateMutability": "nonpayable",
      "type": "constructor"
    },
    {
      "anonymous": false,
      "inputs": [
        {
          "indexed": false,
          "internalType": "address",
          "name": "user",
          "type": "address"
        },
        {
          "indexed": false,
          "internalType": "uint256",
          "name": "amount",
          "type": "uint256"
        },
        {
          "indexed": false,
          "internalType": "uint256",
          "name": "nonce",
          "type": "uint256"
        },
        {
          "indexed": false,
          "internalType": "bytes",
          "name": "signature",
          "type": "bytes"
        }
      ],
      "name": "DepositSuccess",
      "type": "event"
    },
    {
      "anonymous": false,
      "inputs": [
        {
          "indexed": false,
          "internalType": "address",
          "name": "user",
          "type": "address"
        },
        {
          "indexed": false,
          "internalType": "uint256",
          "name": "amount",
          "type": "uint256"
        },
        {
          "indexed": false,
          "internalType": "uint256",
          "name": "nonce",
          "type": "uint256"
        },
        {
          "indexed": false,
          "internalType": "bytes",
          "name": "signature",
          "type": "bytes"
        }
      ],
      "name": "WithdrawSuccess",
      "type": "event"
    },
    {
      "inputs": [
        {
          "internalType": "address",
          "name": "user",
          "type": "address"
        },
        {
          "internalType": "uint256",
          "name": "amount",
          "type": "uint256"
        },
        {
          "internalType": "uint256",
          "name": "nonce",
          "type": "uint256"
        },
        {
          "internalType": "bytes",
          "name": "signature",
          "type": "bytes"
        }
      ],
      "name": "swap",
      "outputs": [],
      "stateMutability": "nonpayable",
      "type": "function"
    },
    {
      "inputs": [
        {
          "internalType": "address",
          "name": "user",
          "type": "address"
        },
        {
          "internalType": "uint256",
          "name": "amount",
          "type": "uint256"
        },
        {
          "internalType": "uint256",
          "name": "nonce",
          "type": "uint256"
        },
        {
          "internalType": "bytes",
          "name": "signature",
          "type": "bytes"
        }
      ],
      "name": "withdraw",
      "outputs": [],
      "stateMutability": "nonpayable",
      "type": "function"
    }
  ],
  "bytecode": "0x608060405234801561001057600080fd5b506040516200103638038062001036833981810160405281019061003491906100df565b80806000806101000a81548173ffffffffffffffffffffffffffffffffffffffff021916908373ffffffffffffffffffffffffffffffffffffffff160217905550505061010c565b600080fd5b600073ffffffffffffffffffffffffffffffffffffffff82169050919050565b60006100ac82610081565b9050919050565b6100bc816100a1565b81146100c757600080fd5b50565b6000815190506100d9816100b3565b92915050565b6000602082840312156100f5576100f461007c565b5b6000610103848285016100ca565b91505092915050565b610f1a806200011c6000396000f3fe608060405234801561001057600080fd5b50600436106100365760003560e01c80630bd0ca9a1461003b578063b691d78c14610057575b600080fd5b61005560048036038101906100509190610867565b610073565b005b610071600480360381019061006c9190610867565b610320565b005b60006100a885858560405160200161008d93929190610953565b60405160208183030381529060405280519060200120610591565b90508473ffffffffffffffffffffffffffffffffffffffff166100cb82846105c1565b73ffffffffffffffffffffffffffffffffffffffff1614610121576040517f08c379a000000000000000000000000000000000000000000000000000000000815260040161011890610a13565b60405180910390fd5b600160008673ffffffffffffffffffffffffffffffffffffffff1673ffffffffffffffffffffffffffffffffffffffff1681526020019081526020016000208260405161016e9190610aad565b908152602001604051809103902060009054906101000a900460ff16156101ca576040517f08c379a00000000000000000000000000000000000000000000000000000000081526004016101c190610b36565b60405180910390fd5b60008054906101000a900473ffffffffffffffffffffffffffffffffffffffff1673ffffffffffffffffffffffffffffffffffffffff1663a9059cbb86866040518363ffffffff1660e01b8152600401610225929190610b74565b6020604051808303816000875af1158015610244573d6000803e3d6000fd5b505050506040513d601f19601f820116820180604052508101906102689190610bd5565b5060018060008773ffffffffffffffffffffffffffffffffffffffff1673ffffffffffffffffffffffffffffffffffffffff168152602001908152602001600020836040516102b79190610aad565b908152602001604051809103902060006101000a81548160ff0219169083151502179055507fcf480abf6f6420171fe9cb499f5bc8bc5be4a12833be18482fb10702d0d52bc8858585856040516103119493929190610c4c565b60405180910390a15050505050565b600061035585858560405160200161033a93929190610953565b60405160208183030381529060405280519060200120610591565b90508473ffffffffffffffffffffffffffffffffffffffff1661037882846105c1565b73ffffffffffffffffffffffffffffffffffffffff16146103ce576040517f08c379a00000000000000000000000000000000000000000000000000000000081526004016103c590610a13565b60405180910390fd5b8360008054906101000a900473ffffffffffffffffffffffffffffffffffffffff1673ffffffffffffffffffffffffffffffffffffffff1663dd62ed3e87306040518363ffffffff1660e01b815260040161042a929190610c98565b602060405180830381865afa158015610447573d6000803e3d6000fd5b505050506040513d601f19601f8201168201806040525081019061046b9190610cd6565b10156104ac576040517f08c379a00000000000000000000000000000000000000000000000000000000081526004016104a390610d75565b60405180910390fd5b60008054906101000a900473ffffffffffffffffffffffffffffffffffffffff1673ffffffffffffffffffffffffffffffffffffffff166323b872dd8630876040518463ffffffff1660e01b815260040161050993929190610d95565b6020604051808303816000875af1158015610528573d6000803e3d6000fd5b505050506040513d601f19601f8201168201806040525081019061054c9190610bd5565b507f20187e3ef4e17f3b0493f63aa4d1d75dca71c1fc8c6419ce4a1e750ab9ad1e7f858585856040516105829493929190610c4c565b60405180910390a15050505050565b6000816040516020016105a49190610e4e565b604051602081830303815290604052805190602001209050919050565b6000806000806105d085610636565b809350819450829550505050600186848484604051600081526020016040526040516105ff9493929190610e9f565b6020604051602081039080840390855afa158015610621573d6000803e3d6000fd5b50505060206040510351935050505092915050565b6000806000604184511461064957600080fd5b60008060006020870151925060408701519150606087015160001a90508083839550955095505050509193909250565b6000604051905090565b600080fd5b600080fd5b600073ffffffffffffffffffffffffffffffffffffffff82169050919050565b60006106b88261068d565b9050919050565b6106c8816106ad565b81146106d357600080fd5b50565b6000813590506106e5816106bf565b92915050565b6000819050919050565b6106fe816106eb565b811461070957600080fd5b50565b60008135905061071b816106f5565b92915050565b600080fd5b600080fd5b6000601f19601f8301169050919050565b7f4e487b7100000000000000000000000000000000000000000000000000000000600052604160045260246000fd5b6107748261072b565b810181811067ffffffffffffffff821117156107935761079261073c565b5b80604052505050565b60006107a6610679565b90506107b2828261076b565b919050565b600067ffffffffffffffff8211156107d2576107d161073c565b5b6107db8261072b565b9050602081019050919050565b82818337600083830152505050565b600061080a610805846107b7565b61079c565b90508281526020810184848401111561082657610825610726565b5b6108318482856107e8565b509392505050565b600082601f83011261084e5761084d610721565b5b813561085e8482602086016107f7565b91505092915050565b6000806000806080858703121561088157610880610683565b5b600061088f878288016106d6565b94505060206108a08782880161070c565b93505060406108b18782880161070c565b925050606085013567ffffffffffffffff8111156108d2576108d1610688565b5b6108de87828801610839565b91505092959194509250565b60008160601b9050919050565b6000610902826108ea565b9050919050565b6000610914826108f7565b9050919050565b61092c610927826106ad565b610909565b82525050565b6000819050919050565b61094d610948826106eb565b610932565b82525050565b600061095f828661091b565b60148201915061096f828561093c565b60208201915061097f828461093c565b602082019150819050949350505050565b600082825260208201905092915050565b7f5369676e6174757265204572726f723a204e6f74205369676e6564206279207460008201527f68652050726f706f736572000000000000000000000000000000000000000000602082015250565b60006109fd602b83610990565b9150610a08826109a1565b604082019050919050565b60006020820190508181036000830152610a2c816109f0565b9050919050565b600081519050919050565b600081905092915050565b60005b83811015610a67578082015181840152602081019050610a4c565b83811115610a76576000848401525b50505050565b6000610a8782610a33565b610a918185610a3e565b9350610aa1818560208601610a49565b80840191505092915050565b6000610ab98284610a7c565b915081905092915050565b7f5472616e73616374696f6e2068617320616c7265616479206265656e2070726f60008201527f6365737365642100000000000000000000000000000000000000000000000000602082015250565b6000610b20602783610990565b9150610b2b82610ac4565b604082019050919050565b60006020820190508181036000830152610b4f81610b13565b9050919050565b610b5f816106ad565b82525050565b610b6e816106eb565b82525050565b6000604082019050610b896000830185610b56565b610b966020830184610b65565b9392505050565b60008115159050919050565b610bb281610b9d565b8114610bbd57600080fd5b50565b600081519050610bcf81610ba9565b92915050565b600060208284031215610beb57610bea610683565b5b6000610bf984828501610bc0565b91505092915050565b600082825260208201905092915050565b6000610c1e82610a33565b610c288185610c02565b9350610c38818560208601610a49565b610c418161072b565b840191505092915050565b6000608082019050610c616000830187610b56565b610c6e6020830186610b65565b610c7b6040830185610b65565b8181036060830152610c8d8184610c13565b905095945050505050565b6000604082019050610cad6000830185610b56565b610cba6020830184610b56565b9392505050565b600081519050610cd0816106f5565b92915050565b600060208284031215610cec57610ceb610683565b5b6000610cfa84828501610cc1565b91505092915050565b7f496e73756666696369656e7420416c6c6f77616e636520746f20636f6e74726160008201527f6374000000000000000000000000000000000000000000000000000000000000602082015250565b6000610d5f602283610990565b9150610d6a82610d03565b604082019050919050565b60006020820190508181036000830152610d8e81610d52565b9050919050565b6000606082019050610daa6000830186610b56565b610db76020830185610b56565b610dc46040830184610b65565b949350505050565b600081905092915050565b7f19457468657265756d205369676e6564204d6573736167653a0a333200000000600082015250565b6000610e0d601c83610dcc565b9150610e1882610dd7565b601c82019050919050565b6000819050919050565b6000819050919050565b610e48610e4382610e23565b610e2d565b82525050565b6000610e5982610e00565b9150610e658284610e37565b60208201915081905092915050565b610e7d81610e23565b82525050565b600060ff82169050919050565b610e9981610e83565b82525050565b6000608082019050610eb46000830187610e74565b610ec16020830186610e90565b610ece6040830185610e74565b610edb6060830184610e74565b9594505050505056fea2646970667358221220b9f171ad2aa4a3715d96fb744bae76b79773fa2c4378dbd822d098d921cf503764736f6c634300080d0033",
  "immutableReferences": {},
  "source": "pragma solidity ^0.8.0;\n\nimport \"./BridgeBase.sol\";\n\ncontract BridgeBsc is SwapBridgeBase {\n    constructor(address token) SwapBridgeBase(token) {}\n}\n",
  "sourcePath": "D:\\DeFi\\swap-bridge\\contracts\\BridgeBsc.sol",
  "compiler": {
    "name": "solc",
    "version": "0.8.13+commit.abaa5c0e.Emscripten.clang"
  },
  "schemaVersion": "3.4.11",
  "updatedAt": "2023-02-09T11:58:38.170Z",
  "networkType": "ethereum",
  "devdoc": {
    "kind": "dev",
    "methods": {},
    "version": 1
  },
  "userdoc": {
    "kind": "user",
    "methods": {},
    "version": 1
  }
}